:020000040800F2
:1000000090050020D900000821130008AF10000857
:1000100000000000000000000000000000000000E0
:10002000000000000000000000000000A313000812
:100030000000000000000000A1130008A513000844
:10004000EB000008EB000008EB000008EB000008E4
:10005000EB000008EB000008EB000008EB000008D4
:1000600000000000EB000008EB000008EB000008B7
:10007000EB000008EB00000800000000EB000008A7
:1000800000000000EB00000800000000000000007D
:10009000EB00000800000000EB000008EB00000887
:1000A000EB000008EB000008EB000008251B00082F
:1000B000EB000008EB00000800000000000000005A
:1000C0000448854600F090F800480047F11D0008FC
:1000D000C046C046900500200448804704480047B9
:1000E000FEE7FEE7FEE7FEE7FEE7FEE71114000885
:1000F000C100000830B50B46014600202022012433
:1001000009E00D46D5409D4205D31D469540491B4B
:100110002546954040191546521E002DF1DC30BD94
:10012000F0B51FB40646002082B005464024019178
:1001300000901BE0019922460F46304600F042F83D
:10014000049A059B801A994110D3104619462246FD
:1001500000F028F8361A8F4101972246012000212D
:10016000009F00F01FF838184D4100902046641E93
:100170000028DFDC019B00982946324607B0F0BD1D
:10018000D2B201E00270401C491EFBD2704700222F
:10019000F6E710B513460A4604461946FFF7F0FF86
:1001A000204610BD10B5202A04DB0146203A9140BC
:1001B000002010BD914020239C1A0346E3401943C0
:1001C000904010BD10B5202A04DB0846203AD040EC
:1001D000002110BD0B46D340D0402024A21A9140EC
:1001E0000843194610BD0000064C0125064E05E0E7
:1001F000E36807CC2B430C3C98471034B442F7D348
:10020000FFF762FF081F0008281F0008F0B53548F7
:1002100087B0416B012529434163816B020411437F
:100220008163C26A80210A43C262C26A0A4005929F
:10023000C16A2943C162C16A29400591C16A022687
:100240003143C162C06A002430400590032040025F
:100250000090042004900327052003970196029440
:100260006946000700F0A0F801961F481F4E009055
:100270000294694603970494304600F095F80122F1
:100280000221304600F068F9052000970197694681
:1002900000070397029400F087F8F82000900520EB
:1002A0000294694601950394000700F07DF805204B
:1002B0000022F821000700F04FF90D480090029449
:1002C000694601950394304600F06EF8002204213F
:1002D000304600F041F901221146304600F03CF969
:1002E00007B0F0BD00100240020C000000040050F6
:1002F0000510000030B5014620314A790023022A5A
:1003000004D00422C2630B71012030BD026814685E
:100310000E25AC431460026814686408640014601D
:10032000446C1C22144001221546006CA540456017
:100330004A7118460B7130BD70B50024014620315A
:100340004A79022A03D00421C163012418E002681B
:1003500013680E25AB431360026813685B085B00EB
:100360001360436C1C221340012215469D40036C10
:100370005D604A7100220A71816B002900D08847B4
:10038000204670BD70B5044600F0ECF80546601CD0
:1003900002D004480078241800F0E4F8401BA04282
:1003A000FAD370BD00000020F8B500230324012516
:1003B000BDE032462E469E40B446324079D00E799A
:1003C000B607B60F012E01D0022E17D18668274638
:1003D000B6465E00B74000967646BE43B646CF6846
:1003E000009EB74076463743876046686746BE43FF
:1003F0000F79FF06FF0F9F40374347600E79F643A2
:10040000B6070ED0C6682746B4465E00B646B7406B
:100410006646BE43B4468F687646B7406646374365
:10042000C7600E79B607B60F022E14D1DE08B600EB
:1004300036180096366A5F07B446FE0E0F27B6469A
:10044000B7406646BE43B4460F697646B740664637
:100450003743009E376206682746B4465E00B646BC
:10046000B7406646BE430F79B446BF07BF0F764616
:10047000B7406646374307604E68B603B60F55D09F
:100480002E4F7E6B2E437E639F082D4EBF00BE19FC
:100490000096B6680F27B4469E07360FB646B7409B
:1004A0006646BE4305273F07B446B84202D100273F
:1004B00015E03BE0234FB84201D101270FE0224F66
:1004C000B84201D102270AE0204FB84201D10327E8
:1004D00005E01F4FB84201D1052700E00627764608
:1004E000B74066463743009EB7601A4E36684F687D
:1004F0009643FF0300D51643164F3E607E684F6853
:100500009643BF0300D51643124F7E60BE684F6806
:100510009643FF0200D516430E4FBE60FE684F683B
:100520009643BF0200D516430A4AD6605B1C0A6890
:100530001646DA4000D03CE7F8BD0000001002404B
:10054000000001400004005000080050000C005062
:10055000001C005000040140002A01D08161704756
:1005600081627047014880687047000000000020E9
:100570000248816802788918816070470000002075
:1005800010B508480024016840221143016020464C
:1005900000F00AF8002801D0012401E000F026F85C
:1005A000204610BD0020024070B504460D4D7D2050
:1005B0002978C000FFF79EFD01460B480068FFF751
:1005C00099FD00F063FB002809D1042C07D200221A
:1005D0002146401E00F018F800206C6070BD01201C
:1005E00070BD0000000000200C00002070470000DB
:1005F000002805DBC106C90E0120884001490860BA
:100600007047000000E100E010B501F0FDFA10BDF8
:10061000F8B50E46050038D05E480068C007C00F28
:10062000B04214D25B4C2068400840003043206048
:10063000FFF798FF074605E0FFF794FFC11B5648F8
:1006400081427AD82068C007C00FB042F4D1287820
:10065000524C800705D5E068F0218843A96808431B
:10066000E0602878C00752D06868022806D00328C6
:1006700007D0216801280AD0890504E02168890390
:1006800001E021688901002903DB0120F8BD490749
:10069000F9E7E168890889000143E160FFF762FF3B
:1006A0000746686802280AD0032814D001281ED003
:1006B00029E0FFF757FFC11B374881423DD8E0686A
:1006C0000007800F0228F4D121E0FFF74BFFC11B88
:1006D0003148814231D8E0680007800F0328F4D107
:1006E00015E0FFF73FFFC11B2B48814225D8E0688A
:1006F0000007800F0128F4D109E0FFF733FFC11B89
:100700002548814219D8E0680007800FF5D12148BB
:100710000168C907C90FB14217D9016849084900E2
:1007200031430160FFF71EFF074608E005E0FFF7D1
:1007300019FFC11B1848814201D90320F8BD154893
:100740000068C007C00FB042F1D12878400706D535
:10075000E068072109028843E9680843E0602878D7
:10076000000707D5E0680721C90288432969C90045
:100770000843E06000F03AF8E168094A0906090F09
:10078000515CC8400749086007480068FFF70CFF44
:10079000F8BD000000200240881300000010024055
:1007A000E41E00080C000020040000200448054955
:1007B0000068C968044A4905490F515CC840704740
:1007C0000C00002000100240FD1E000804480549EE
:1007D0000068C968044A8904490F515CC8407047E1
:1007E0000C00002000100240FD1E000870B51A4ADF
:1007F000D3681A490C2018408D0004280CD04E00F4
:10080000082810D00C2810D050680004410F012097
:10081000C003491C884070BD1068C00601D5084659
:1008200070BD284670BD304670BD98020C4C000F5C
:10083000205C1B029C0FD368641CDB0301D531468E
:1008400003E01268D20600D4294601F0B7F9224627
:100850000023FFF765FC70BD0010024000093D0059
:10086000F41E0008FEB505007ED0FE4CE7680C20A3
:10087000E66807400120000406402878C00747D0FA
:10088000082F05D00C2F0AD101200004864206D182
:10089000206880033CD568680028E5D038E0012056
:1008A00069680004814203D121680143216011E09D
:1008B000052301221B0492049942216802D11143AD
:1008C0002160F1E7814321602168014000912068A7
:1008D00090432060686800280DD0FFF743FE009029
:1008E00005E0FFF73FFE0099401A64287BD8206896
:1008F0008003F6D50CE0FFF735FE009005E0FFF72A
:1009000031FE0099401A6428F0D820688003F6D49C
:100910002878800756D50923E868042F0DD00C2FBE
:1009200001D1002E09D000283CD021689943014311
:100930002160FFF717FE064628E02168490701D528
:10094000002891D061681F22120291432A69120285
:10095000114361602168994301432160FFF746FF1D
:10096000E16809060A0F00E08BE1BF49895CC840D5
:10097000BE490860BE480068FFF716FE002873D124
:1009800020E0FFF7EFFD801B0228AFD8206840076A
:10099000F7D560681F2109028843296909020843C5
:1009A00060600FE02068400840002060FFF7DAFD3B
:1009B000064604E0FFF7D6FD801B022896D8206883
:1009C0004007F7D42878C00660D5002F0CD0A8695E
:1009D00000284AD02068FF21013108432060FFF73A
:1009E000C1FD06462EE0C1E02068800502D5A86959
:1009F0000028A6D06068072149038843296A084374
:100A000060606068297F0002000A09060843606090
:100A1000286A410B0120C003491C8840E16809068F
:100A20000A0F9149895CC840904908609048006865
:100A3000FFF7BAFD002817D128E0FFF793FD801BD0
:100A40000228A2D820688005F7D5606807214903ED
:100A50008843296A084360606068297F0002000AB1
:100A600009060843606011E0E2E02168FF200130E0
:100A700081432160FFF776FD064604E0FFF772FD33
:100A8000801B022872D820688005F7D42878794E18
:100A9000000724D568690028306910D00121084377
:100AA0003061FFF75FFD009005E0FFF75BFD009907
:100AB000401A02285AD830698007F6D50FE040085E
:100AC00040003061FFF74EFD009005E0FFF74AFD62
:100AD0000099401A022849D830698007F6D428784E
:100AE000400766D500200290A06BC00006D4A06B22
:100AF000012109070843A063012002905E480168B4
:100B0000C90511D40168821511430160FFF72AFD60
:100B1000009005E0FFF726FD0099401A642825D8CB
:100B200055480068C005F5D5FF20AA68013082420B
:100B300003D131690143316111E001218902002AA9
:100B400007D005231B029A4203D132690A4332615E
:100B5000EFE7326982433261306988433061A868C7
:100B6000002810D0FFF7FEFC009008E05FE0FFF7E0
:100B7000F9FC01460098091A4048814257D830696B
:100B80008005F4D50DE0FFF7EDFC009006E0FFF7DF
:100B9000E9FC0099411A3948814248D830698005FA
:100BA000F5D40298002804D0A06B012109078843DE
:100BB000A063686A002866D00C2F3ED00126360656
:100BC0000228206805D0B0432060FFF7CBFC054623
:100BD0002FE0B0432060FFF7C5FC074604E0FFF7B5
:100BE000C1FCC01B022822D820688001F7D4E96A22
:100BF000A86AE2680843296BFD231B049A4311434A
:100C00000843E060206830432060FFF7ABFC0546F6
:100C100004E0FFF7A7FC401B022808D820688001E9
:100C2000F7D530E0FFF79EFC401B022801D90320D6
:100C3000FEBD20688001F5D425E00128F8D0E068E9
:100C400001210904AA6A014091421AD10F218904A5
:100C5000EA6A0140914214D1032189050840296BB9
:100C600088420DE000100240E41E00080C00002045
:100C70000400002040100240007000408813000073
:100C800001D00120FEBD0020FEBD0000094910B5C5
:100C9000401E884201D9012010BD074C606103212C
:100CA000081F00F0B1FF0020A06107202061002094
:100CB00010BD0000FFFFFF0000E000E070B5050080
:100CC00005D02C462034607E002802D006E00120AA
:100CD00070BD00202076284600F00FF802206076D4
:100CE000291D286800F0B4FB0120A077A076E076EB
:100CF000207760776076002070BD7047704770473E
:100D000070470000F8B502680446D069116896681B
:100D1000A24B05461D402023002D75D0F707A04D9E
:100D2000FF0FBC460D402F436DD02546C7078035C9
:100D3000002F06D0CF0504D5012717622A683A4351
:100D40002A60820708D5F20706D0276802223A6295
:100D50002A6804273A432A60420708D5F20706D0DA
:100D60002668042232622A68022632432A60020779
:100D70000AD50A461A406646324305D0266808223C
:100D800032622E6816432E60020508D54A0106D548
:100D900001222668D20232622A681A432A602A682F
:100DA000002A39D0800606D5880604D5616E002950
:100DB00001D020468847286821688968490602D4FE
:100DC000282108422DD0204600F010FC21688868B8
:100DD000400622D5EFF31080012282F310888B6841
:100DE000402293438B6080F31088206F002814D03A
:100DF0006C498163206FFFF79FFA00280CD0206FA9
:100E0000816B08E000E012E0850610D58D060ED556
:100E1000616EA9E020468847F8BD2046FFF770FFC5
:100E2000F8BD2046FFF76CFF00202860F8BD256E56
:100E3000012D7CD1C5067AD5CD0678D5102616624F
:100E400022689068254640064035002846DA216F22
:100E5000086840680004000CE8D02F8B8742E5D971
:100E6000688308680068800633D4EFF3108001219E
:100E700081F3108811683701B943116080F310883D
:100E8000EFF31080012181F3108821688A685208ED
:100E900052008A6080F31088EFF31080012181F303
:100EA000108821688A684027BA438A6080F31088D6
:100EB000E36700202066EFF31080012181F31088A2
:100EC00021680A68B2430A6080F31088206FFFF738
:100ED00011FA288B698B401A81B231E0288B698B1B
:100EE000401A81B2688B0028A0D000299ED0EFF371
:100EF0001080012585F310881568FF272137BD4331
:100F0000156080F31088EFF31080012282F31088BF
:100F1000226895686D086D00956080F31088E3671E
:100F2000002020666066EFF31080012200E00BE0F5
:100F300082F3108822681368B343136080F310882B
:100F40002046FFF7DBFEF8BDC50208D5750206D5C1
:100F50000120000510622046FFF7D1FEF8BD05060E
:100F600006D50D0604D5A16E002900D052E7F8BDC4
:100F70004006FCD54806FAD52046EFF3108101243F
:100F800084F3108814684025AC43146081F3108802
:100F900083670021816600F089F8F8BD0F08000022
:100FA00020010004D915000810B5040003D0A06F7B
:100FB000002802D007E0012010BD00217420015557
:100FC000204600F026F82420A06720680168490820
:100FD00049000160204600F0E1FB0128ECD0606A86
:100FE000002802D0204600F05FFA206841680922FC
:100FF000D20291434160206881682A229143816036
:1010000020680168012211430160204600F0B2FA15
:1010100010BD704770B5C36F202B2ED100290BD0A7
:10102000002A09D0012483682403A34206D103695E
:10103000002B03D1CB0701D0012070BD03466033E4
:101040001C7D012C19D001241C75002303660C4B58
:1010500004689C420ED063681B020BD5EFF310832B
:10106000012585F3108825680126B60635432560DD
:1010700083F3108800F092FC70BD022070BD000068
:101080000048004007490A780846212A07D0097815
:10109000054A4369D1544169491C416170470121A6
:1010A0008170704710000020800100207047FEE72B
:1010B00010B5012000F004F80220FFF763F910BD1D
:1010C00070B504460520002208210007FFF744FA06
:1010D000200900F0D9F80E4D012204212846FFF71F
:1010E0003BFA00F070FE002204212846FFF734FA94
:1010F000204600F0C9F8012204212846FFF72CFA07
:1011000000F061FE002204212846FFF725FA70BD99
:101110000004005070B50446052001220821000794
:10112000FFF71AFA200900F0AFF80E4D0122042152
:101130002846FFF711FA00F046FE00220421284657
:10114000FFF70AFA204600F09FF801220421284602
:10115000FFF702FA00F037FE002204212846FFF7CD
:10116000FBF970BD0004005010B51420FFF70AF918
:101170000520002208210007FFF7EEF9032000F008
:1011800083F82C4C012204212046FFF7E5F900F0FA
:101190001AFE002204212046FFF7DEF90120FFF7A6
:1011A000F1F8032000F070F8012204212046FFF737
:1011B000D3F900F008FE002204212046FFF7CCF905
:1011C0000120FFF7DFF8032000F05EF80122042180
:1011D0002046FFF7C1F900F0F6FD00220421204669
:1011E000FFF7BAF90120FFF7CDF82820FFF768FFD5
:1011F0000120FFF7C7F82820FFF762FF0120FFF763
:10120000C1F80C20FFF75CFF0120FFF7BBF80120BD
:10121000FFF756FF0220FFF7B5F80620FFF750FF53
:101220000120FFF7AFF80220FFF74AFF0220FFF787
:10123000A9F810BD0004005010B5802200290ED07E
:1012400001290ED002290ED0032907D154301043B2
:10125000C0B2FFF735FF0120FFF794F810BD10432F
:10126000F7E74030F3E71430F1E770B505460024A6
:1012700005E0FFF74FFF00F0A6FD641CE4B2285D17
:101280000028F6D170BD000070B50446124D00076D
:1012900001D5012200E0002280212846FFF75CF9F9
:1012A000600701D5012200E0002240212846FFF717
:1012B00053F9A00701D5012200E000222021284691
:1012C000FFF74AF9E00701D0012200E000221021D7
:1012D0002846FFF741F970BD0000005010B50D48D9
:1012E000816B01229204114381630C480A49016019
:1012F0004B218901416000218160C16001610822A8
:1013000081614261C161FFF74FFE002801D072B6D2
:10131000FEE710BD0010024000480040BC00002065
:10132000FEE7000030B51C49002008601B4A4860F9
:10133000107824282AD1012000E0401C135C2E2BB9
:10134000FBD1012307E0145C0D68303C5C432C1991
:101350000C600A246343401E145C242CF3D100E08B
:10136000401C135C212BFBD10123C01E0BE0145C3D
:101370002D2C0CD0145C4D68303C5C432C194C6017
:101380000A246343401E145C202CF0D130BD486811
:101390004042486030BD0000300000208001002045
:1013A0007047704710B5FFF7E3F810BD10B592B065
:1013B00034216846FEF7EBFE14210DA8FEF7E7FE88
:1013C000124801680322D2029143C21489180160B5
:1013D0000120009000040024019009946846FFF762
:1013E00041FA002801D072B6FEE70F200D900220CE
:1013F0000E900F941094002111940DA8FFF708F996
:10140000002801D072B6FEE712B010BD0070004097
:101410007047000010B50948816B102211438163A9
:10142000084807490160084941600021074A816076
:10143000C2604161FFF742FC10BD00000010024095
:1014400000100040400100203F1F0000B70B0000CB
:1014500070B5026801239B07114C124D984203D0CE
:10146000A04201D0A84203D17026B2434E68324355
:10147000984203D0A04201D0A84204D103231B020A
:101480009A43CB681A4380239A430B691A4302603C
:101490008A68C262096881620121416170BD0000F1
:1014A000000801400014014010B5818CC90707D025
:1014B00001684A6801235B049A43836A1A434A60BD
:1014C000818C890707D501684A6801231B049A4368
:1014D000C36A1A434A60818C490707D501684A6884
:1014E00001239B049A43036B1A434A60818C0907CA
:1014F00007D501684A680123DB039A43436B1A430B
:101500004A60818CC90607D50268916801231B03D4
:101510009943836B19439160818C890607D50168D3
:101520008A6801235B039A43C36B1A438A60818CE8
:10153000490612D503685A6801210905046C8A43DB
:1015400022435A60026C8A4207D102685168032321
:101550005B059943436C19435160818C090607D59B
:1015600001684A680123DB04806C9A4302434A60A5
:1015700010BD0000F8B50446002680300660FEF776
:10158000F1FF054620680068124F000709D50121C8
:101590002B46002249052046009700F059FA002802
:1015A0000DD12068006840070BD501212B46002291
:1015B00089052046009700F04BFA002801D003204F
:1015C000F8BD2020A067E0672666603426750020FD
:1015D000F8BD0000FFFFFF0110B5806A0022014640
:1015E00040314A834A82FFF78BFB10BD10B5EFF301
:1015F0001081012282F3108802681368FF242134CD
:10160000A343136081F31088EFF31081012282F36A
:101610001088026893685B085B00936081F3108810
:10162000016E01290BD1EFF31081012282F31088A2
:10163000026813681024A343136081F310882021EB
:10164000C16700210166416610BD70B50146403199
:101650008B8BC46F0268222C04D090690821084348
:10166000906170BD526A446D1A402280426D921C96
:1016700042654A8B521E4A834A8B002AF1D1EFF30E
:101680001082012383F3108803681C68FF2521352D
:10169000AC431C6082F31088EFF31082012383F3C4
:1016A000108803689C68640864009C6082F310885A
:1016B0002022C26700224266036E012B02D0FFF790
:1016C000E1FC70BD0266EFF31082012383F3108802
:1016D0000468256810239D43256082F31088026802
:1016E000D469E443E40600D41362098BFFF706FBD8
:1016F00070BD70B5014640318B8BC46F0268222CDF
:1017000004D0906908210843906170BD526A1A4064
:10171000436D1A70426D521C42654A8B521E4A83B9
:101720004A8B002AF1D1EFF31082012383F3108852
:1017300003681C68FF252135AC431C6082F31088C8
:10174000EFF31082012383F3108803689C68640818
:1017500064009C6082F310882022C26700224266E7
:10176000036E012B02D0FFF78DFC70BD0266EFF314
:101770001082012383F310880468256810239D4399
:10178000256082F310880268D469E443E40600D43B
:101790001362098BFFF7B2FA70BD0000F8B504467A
:1017A000016880682369E66918436369002533434B
:1017B0001843724A0B68724E334003430B60216832
:1017C000486803231B039843E36818434860216873
:1017D000A069914201D0236A18438B680B26360218
:1017E000B34303438B606749236867488B420CD13E
:1017F000C0688007800F06D0012839D0022835D074
:10180000032821D11EE001271FE060498B420AD145
:10181000C0680C21084027D0042829D0082825D0EA
:101820000C2811D10EE093420ED1C1680320800232
:10183000014019D001208002091A19D0091A15D0C7
:10184000814201D1082700E010274F495048403914
:101850008600934232D1002F0CD0022F0DD0042FDE
:1018600010D0082F7FD126E00027EEE70227ECE713
:101870000427EAE7FEF79AFF06E00968C90605D4DF
:10188000304603E0FEF7B2FF002872D062685100D4
:101890005118814267D81103814264D3010E0602B8
:1018A0005008002330185941FEF73AFC0321090281
:1018B000411A384A55E00120C003E7E70122E369F5
:1018C000D20393422BD13B0000F090F90906090C9A
:1018D0004D114D4D4D274D00FEF768FF09E0FEF715
:1018E00075FF06E00968C90605D4304603E0FEF737
:1018F0007DFF00283DD0616840004A088018FEF74F
:10190000F9FB80B20146244A103991422BD8511C70
:1019100001400007400F084329E01046EBE73B0079
:1019200000F064F90906090C21122121212321006C
:10193000FEF73CFF0AE0FEF749FF07E00968C90629
:1019400006D4304604E00EE0FEF750FF002810D029
:1019500061684A081018FEF7CDFB80B201460E4AB6
:101960001039914203D9012503E01046F0E72168C0
:10197000C86000206066A0662846F8BD00480040A8
:10198000F369FFEF0038014040100240004400407E
:1019900000093D00FFFC0F00EFFF000070B541653E
:1019A000014640310A834A8300224266012384684B
:1019B0001B03FF259C4204D10469002C13D1214C48
:1019C0000AE07F26002C09D001252D07AC420CD15E
:1019D0000469002C05D03F248C8307E00469002CA7
:1019E00001D08E8302E08D8300E08A8380210A503B
:1019F0002221C167EFF31081012484F31088046869
:101A0000A56801263543A56081F310888168994255
:101A100002D10169002912D00B49416674210A5490
:101A2000EFF31081012282F3108800680268FF231F
:101A300021331A43026081F31088002070BD0349EE
:101A4000EBE70000FF010000F31600084B1600084A
:101A5000FFB581B005461746044660350A9E55E03D
:101A6000701C53D0FEF77EFD0499401AB04230D866
:101A7000002E2ED020680168490747D5C069C043B1
:101A8000000543D401202168C0020862EFF31080F2
:101A9000012181F3108821680B68FF22A132934352
:101AA0000B6080F31088EFF31080012181F3108820
:101AB00021688A68520852008A6080F310882020CA
:101AC000A067E0678034206000202875032005B0FF
:101AD000F0BDEFF31080012181F3108821680B68BD
:101AE000FF22A13293430B6080F31088EFF3108044
:101AF000012181F3108821688A68520852008A60A7
:101B000080F310882020A067E067DDE72068C169C6
:101B10000298884304D00020B842A1D00020D6E724
:101B20000120F9E710B5012203490448FFF772FAD2
:101B30000248FFF7E7F810BD100000203800002031
:101B400010B51148416B01229203114341631048C3
:101B50000E4901604B21C901416000218160C160D3
:101B600001610C2281614261C161FFF71DFA002809
:101B700001D072B6FEE7002211461B20FEF744FD9D
:101B80001B20FEF735FD10BD00100240003801405B
:101B9000380000200FB410B504A9074B02AA03981F
:101BA00000F064F8044602A9002000F007F920467E
:101BB00010BC08BC04B01847BD1D0008F8B5040CE3
:101BC0008BB2264682B25E430D0C1046370C58434A
:101BD000360480190021794116466E43370C3604CD
:101BE0008019794126466E438919F8BD30B4744690
:101BF000641E2578641CAB4200D21D46635D5B0009
:101C0000E31830BC184700008307FF22DB0E9A4020
:101C10008907090E9940002808DB830809489B00C2
:101C20001B18186890430843186070470007000F9E
:101C30000838830804489B001B18D8699043084360
:101C4000D861704700E400E000ED00E002E008C861
:101C5000121F08C1002AFAD170477047002001E026
:101C600001C1121F002AFBD170470000FFB58DB0E3
:101C70000446002506E025280AD0109A0F999047BF
:101C8000641C6D1C20780028F5D1284611B0F0BDE9
:101C900000270121484A009700E00743641C23788D
:101CA0000846203B98401042F7D120782E2817D1C3
:101CB000042007436078641C2A280CD10E98641C09
:101CC00002C800910E900BE000990A22514330396E
:101CD0004018641C00902078014630390929F3D956
:101CE00020780028D1D0642808D0692806D075282B
:101CF0001ED0109A0F9990476D1C5BE00A200E9938
:101D0000019001C90E91002802DA40422D2102E023
:101D1000390504D52B216A461172012103E0F90728
:101D200004D02021F7E70BAE0B910DE00021FAE77C
:101D30000A200E99019001C90E91F7E70199FEF76B
:101D4000D9F93031761E31700028F7D103A8801BF5
:101D500020300190780701D5009801E00120009023
:101D60000199884201DD401A00E000200027009020
:101D700006E002A8109AC05D0F9990476D1C7F1C69
:101D80000B988742F5DB04E0109A30200F999047BA
:101D90006D1C0099481E00900029F5DC05E03078A4
:101DA000109A761C0F9990476D1C0199481E01905E
:101DB0000029F4DC641C65E7092801000A68531C4B
:101DC0000B60107070470020401C80B21428FBD3B9
:101DD00070470000054CE078012804D00228FAD0B2
:101DE00000F01AF8F7E700F03DF8F4E710000020E3
:101DF000FEF7C6FBFFF7DAFAFEF708FAFFF7A0FED8
:101E0000FFF76CFAFFF706FBFFF7AEF9FFF750F9A3
:101E1000FFF7E0FFFCE70000F0B50F4D2868016810
:101E20002027394301600D4CA078002812D00C4EB9
:101E3000616921207054FFF775FA0D20002131549B
:101E4000401EFCD16161A17028680168B94301603E
:101E50000120E070F0BD00003800002010000020DC
:101E6000800100201FB5174C17A168462268FFF7B4
:101E700091FE15A102A86268FFF78CFE00210846BA
:101E8000FFF7DAF912A0FFF7F0F96846FFF7EDF96E
:101E900011A0FFF7EAF902A8FFF7E7F901210020F6
:101EA000FFF7CAF90DA0FFF7E0F9072000216B4604
:101EB00002AA19541154401EFBD102482038C170A7
:101EC0001FBD0000300000202025642020000000FD
:101ED0004F626A7C000000007C000000526F747C3E
:101EE00000000000000000000000000001020304E8
:101EF00006070809030406080C101820300000002B
:101F00000001020304000000281F00080000002058
:101F1000380000004C1C0008601F0008380000203A
:101F2000580500005C1C00080100000004000000CF
:101F30000000000000002000003900000000000048
:101F400000000C4200000000000000000000000043
:101F50000000000000000000000000000000000081
:04000005080000C12E
:00000001FF
